:020000040800F2
:1000000048060020010100087F1D00086F15000848
:100010007D1D0008C10100088122000800000000C9
:10002000000000000000000000000000111F000898
:10003000F301000800000000811D0008431F0008B4
:100040001B0100081B0100081B0100081B01000820
:100050001B0100081B0100081B0100081B01000810
:100060001B0100081B0100081B0100081B01000800
:100070001B0100081B0100081B0100081B010008F0
:100080001B0100081B0100081B0100081B010008E0
:100090001B0100081B0100081B0100081B010008D0
:1000A0001B0100081B0100081B0100081B010008C0
:1000B0001B0100081B0100081B0100081B010008B0
:1000C0001B0100081B0100081B0100081B010008A0
:1000D0001B0100081B0100081B0100081B01000890
:1000E0001B0100081B0100081B010008DFF80CD0F1
:1000F00000F040F800480047652800084806002046
:100100000648804706480047FEE7FEE7FEE7FEE7B1
:10011000FEE7FEE7FEE7FEE7FEE7FEE7951F0008C5
:10012000ED000008D2B201E000F8012B491EFBD21D
:1001300070470022F6E710B513460A4604461946F2
:10014000FFF7F0FF204610BD30B50B4601460020FA
:100150002022012409E021FA02F59D4205D303FA89
:1001600002F5491B04FA02F52844151EA2F101020A
:10017000F1DC30BD064C074D06E0E06840F00103BD
:1001800094E8070098471034AC42F6D3FFF7B2FF6B
:10019000302B0008502B000810B5142001F012FE7F
:1001A0000321BDE81040142001F0B3BE10B51420A7
:1001B00001F024FE0321BDE81040142001F0B5BE7B
:1001C000FEE770B50C46054601F0FCFD20EA04018F
:1001D0002846BDE8704002F055B870B50C4605469B
:1001E00001F00CFE20EA04012846BDE8704002F050
:1001F00063B8704770B5044600F008F90546601C06
:1002000002D004480078044400F000F9401BA042EA
:10021000FAD370BD200000202DE9F84FDFF8B89127
:10022000002409F1040A0AF1040B23460F270BF1FD
:10023000040EC9E00125A5402A40AA427DD1674E9F
:10024000D1F804C0ACEB0608B44532D014DCBCF1E4
:10025000030F3AD009DCBCF1000F2AD0BCF1010F2A
:100260001CD0BCF1020F31D11DE0BCF1110F17D031
:10027000BCF1120F2AD119E0B8F5881F19D006DC9D
:10028000B8F5803F15D0B8F5801F1FD111E0B8F543
:10029000001F0ED0B8F5041F18D10AE0CB6815E096
:1002A000CB681B1D12E0CB6808330FE0CB680C3322
:1002B0000CE08B682BB1012B4FF0080303D0456194
:1002C00004E0042302E0056100E00023FF2A01D8D6
:1002D000064601E000F104064FEA840501D9A5F1C4
:1002E0002005D6F8008007FA05FC28EA0C0803FA76
:1002F00005F548EA0508C6F800804D68ED0062D5AE
:10030000374DAE6946F00106AE61AD6924F00306D3
:1003100005F001050095334D06EB050CDCF808509F
:10032000A607360F07FA06F825EA0805DFF8B880B1
:10033000404503D14FF0000817E044E0DFF8AC80FF
:10034000404502D14FF001080FE0DFF8A48040459E
:1003500002D14FF0020808E0DFF89880404502D152
:100360004FF0030801E04FF0040808FA06F848EAE5
:100370000508CCF808804D68D9F80060ED034D46BB
:1003800001D5164300E096432E604D68DAF8006010
:10039000AD03554601D5164300E096432E604D68E7
:1003A000DBF80060ED025D4601D5164300E09643A0
:1003B0002E604D68DEF80060AD02754601D516432B
:1003C00000E096432E60641C0D682A46E5407FF4E9
:1003D00031AFBDE8F88F00000004014000001110AB
:1003E000001002400000014000080140000C0140E4
:1003F00000100140001401408068084000D0012036
:1004000070470AB1016170470904FBE70148806841
:10041000704700002000002070B5040025D094F83B
:100420003D00002520B984F83C50204600F04EF9EC
:10043000242084F83D002068016821F0010101605A
:100440002068016841F4004101602068016821F4DE
:100450000041016000F092FA4D4A6168914201D872
:100460004C4900E04C49884201D2012070BD4B4903
:100470002368B0FBF1F15E6826F03F060E435E6034
:100480006368934206D94FF4967359434FF47A73D5
:10049000B1FBF3F12368491C1E6A26F03F06314385
:1004A00019626168914210D84900401EB0FBF1F218
:1004B000521CC2F30B02042A01D2042022E0B0FB3A
:1004C000F1F0401CC0F30B001CE0A268F2B301EB9A
:1004D000C10303EB0116431EB3FBF6F35B1C43F4AD
:1004E00080431B0549D092B301EBC10202EB01111D
:1004F000401EB0FBF1F0401CC0F30B0040F4804004
:1005000040F400402168CA694CF6FF739A431043D7
:10051000C861D4E9071001432068026822F0C002D4
:1005200011430160D4E9030101432068826848F265
:10053000FF339A4311438160D4E9050108432168E0
:10054000CA6822F0FF021043C86001E00EE016E026
:100550002068016841F0010101602564202084F8D1
:100560003D00256384F83E50002070BD01EB41063C
:10057000431EB3FBF6F35B1CB3E70120C2E701EBBC
:100580004101401EB0FBF1F0401CC0F30B00B7E787
:10059000A086010080841E0000093D0040420F003B
:1005A0002DE9F84F1F4690468A460446DDF828900C
:1005B000FFF72CFF054694F83D0020287FD1192332
:1005C000012240492046009501F05EF8002876D1CE
:1005D00094F83C00012872D0012084F83C00206887
:1005E0000168C90703D1016841F001010160206879
:1005F000016821F400610160212084F83D00102091
:1006000084F83E0000262664C4F824806785608D47
:1006100020852D48E0622B464A465146204600F090
:10062000BFFF90B9206841698069009036E02A4692
:100630004946204601F0A7F850B1206C042804D1A7
:100640002068016841F4007101600120BDE8F88F65
:10065000606A216800780861606A401C6062618D90
:10066000491E6185218D491E89B221852268536901
:10067000DB435B070BD451B100781061606A401C0A
:100680006062608D401E6085208D401E20852A4658
:100690004946204600F0D2FF0028CED1208D002808
:1006A000C5D154F83D0B016841F400710160202070
:1006B00004F81E09E67766770020C7E7FFE7022007
:1006C000C4E70000020010000000FFFF10B586B074
:1006D0000021009101910291039100681349884221
:1006E00022D1134CA06940F00800A061A0696946BE
:1006F00000F0080004904FF4407000901220019028
:10070000032003900B48FFF787FD0B48416841F039
:10071000E06141F002014160E06940F40010E061F5
:10072000E06900F40010049006B010BD00540040D1
:1007300000100240000C01400000014002488168A6
:10074000027811448160704720000020074810B5EE
:10075000016841F010010160032000F067F80020FB
:1007600000F006F800F024F8002010BD0020024040
:1007700070B50D4D04464FF47A712878B1FBF0F056
:100780000A490968B1FBF0F000F085FC48B9102C6B
:1007900007D200222146501E00F028F800206C608D
:1007A00070BD012070BD0000200000202C00002042
:1007B0000C4808B5816941F001018161816901F04E
:1007C00001010091C16941F08051C161C06900F02F
:1007D000805000900448416821F0E06141F00071D0
:1007E000416008BD0010024000000140F0B40E4B13
:1007F0001B680C46C3F30223C3F10705042D00D97F
:100800000425191D072901D2002300E0DB1E012663
:1008100006FA05F1491E214099409E40761E164079
:100820003143F0BC01F08ABD0CED00E0064900F058
:10083000070208684FF6FF03184040EA0220034A07
:1008400010430860704700000CED00E00000FA055E
:100850002DE9F0470F46050061D0434E306800F0A7
:100860000700B84209D2306820F0070038433060F2
:10087000306800F00700B84251D128683B4C81072E
:1008800012D5400703D5606840F4E06060602878C6
:10089000000703D5606840F4605060606068A96834
:1008A00020F0F000084360602878C00728D068680E
:1008B000012810D02168022810D0890700292EDADB
:1008C000616821F0030101436160FFF79FFD8046ED
:1008D00041F288390DE021688903EFE78901EDE7EE
:1008E000FFF794FDA0EB0801494502D90320BDE8BC
:1008F000F0876068696800F00C00B0EB810FEFD101
:10090000306800F00700B8420BD9306820F00700CB
:1009100038433060306800F00700B84201D0012051
:10092000E5E72878400705D56068E96820F4E060CD
:10093000084360602878000706D56068296920F4BC
:10094000605040EAC100606000F038F86168084A11
:10095000C1F30311515CC8400649086006480068AD
:10096000FFF706FF0020C2E700200240001002400F
:10097000182B00082C000020240000200448054902
:1009800000684968044AC1F30221515CC8407047BD
:100990002C00002000100240282B000804480549C4
:1009A00000684968044AC1F3C221515CC8407047DD
:1009B0002C00002000100240282B000812A185B056
:1009C0000FC98DE80F0014A0144A00680490516804
:1009D000134801F00C03042B10D0082B0ED1C1F3E7
:1009E0008343C9031DF803000AD5516804AAC1F363
:1009F0004041515C0A4A5043B0FBF1F005B07047EA
:100A000008494843FAE700000203040506070809FD
:100A10000A0B0C0D0E0F1010010200000010024016
:100A200000127A0000093D002DE9F84F040070D053
:100A30002078C04DC00749D06868C0F38100012804
:100A400007D06868C0F38100022809D16868C00334
:100A500006D52868800339D560680028E7D035E0DE
:100A60006068B0F5803F0BD010B1B0F5A02F11D069
:100A7000286820F480302860286820F4802002E074
:100A8000286840F480302860606890B1FFF7BEFCB1
:100A900006460AE0286840F480202860F0E700BF9E
:100AA000FFF7B4FC801B642873D828688003F7D54F
:100AB0000CE0FFF7ABFC064605E000BFFFF7A6FC25
:100AC000801B6428F0D828688003F7D420789A4ED9
:100AD00080074FF001094FF0000839D5686810F021
:100AE0000C0F07D06868C0F38100022809D168683C
:100AF000C00306D42868800714D52069012808D1CE
:100B000010E02069B0B1C6F80090FFF77FFC0746FF
:100B100005E00AE1FFF77AFCC01B0228C4D8286868
:100B20008007F7D52868616920F0F80040EAC10025
:100B300028600DE0C6F80080FFF768FC074604E077
:100B4000FFF764FCC01B022823D828688007F7D46D
:100B5000207800072CD57948A169D9B1C0F8009058
:100B6000FFF754FC074604E0FFF750FCC01B0228C7
:100B70000FD8686A8007F7D571484FF4FA510068BA
:100B8000B0FBF1F0009000BF0098411E0091FAD236
:100B90000EE080E0C0F80080FFF738FC074604E074
:100BA000FFF734FCC01B022875D8686A8007F7D4A9
:100BB0002078400760D5E8690027C00008D4E869BC
:100BC00040F08050E861E869012700F08050009013
:100BD0005C480168C90513D40168834641F48071FB
:100BE0000160FFF713FC824606E000BFFFF70EFC32
:100BF000A0EB0A0064284ED8DBF80000C005F5D54C
:100C0000E06801280AD008B1052813D0286A20F02E
:100C100001002862286A20F0040002E0286A40F0FF
:100C200001002862E06841F2883B98B1FFF7EEFBD3
:100C300082460BE0286A40F004002862EEE700BF1D
:100C4000FFF7E4FBA0EB0A0159455AD8286A800750
:100C5000F6D50CE0FFF7DAFB824605E0FFF7D6FB9E
:100C6000A0EB0A0159454CD8286A8007F6D41FB179
:100C7000E86920F08050E861E06988B36968C1F3F1
:100C80008101022944D00228C6F8608004D0FFF711
:100C9000BDFB044638E034E0FFF7B8FB074604E04C
:100CA000FFF7B4FBC01B02282BD828688001F7D4BB
:100CB000206AB0F5803F05D16868A16820F4003053
:100CC00008436860D4E908010843696821F4741195
:100CD00008436860C6F86090FFF798FB044606E09A
:100CE00025E000BFFFF792FB001B022809D8286807
:100CF0008001F7D51BE000BFFFF788FB001B02282F
:100D000002D90320BDE8F88F28688001F4D40EE0F2
:100D10000128F7D06868226A00F48031914204D13A
:100D2000616A00F47010884201D00120EAE70020D7
:100D3000E8E7000000100240000042428004424206
:100D40002C0000200070004070B5040009D0606ADB
:100D5000002540B125616561A56294F8510040B15C
:100D60000CE0012070BD6068B0F5827FF4D0E561D1
:100D7000F2E784F85050204600F040F8022084F852
:100D800051002068016821F040010160A08821899C
:100D900000F4827001F404410843A18901F4006168
:100DA0000843217C01F002010843217D01F001018B
:100DB0000843218B01F400710843217F01F03801C1
:100DC000084394F8201001F080010843218D01F4BC
:100DD0000051084321680860A069042101EA10401D
:100DE000216848602068C16921F40061C1616565BE
:100DF000012084F85100002070BD000030B585B09E
:100E000000240094019402940394254D036825481E
:100E100002210322AB421AD1836943F480538361D8
:100E2000836903F480530493836943F0040383616B
:100E300080691D4D00F004000490A020CDE9000160
:100E4000039269462846FFF7E7F940201EE0174D58
:100E5000AB4222D1C36943F48043C361C36903F445
:100E600080430493836943F0080383618069104DD4
:100E700000F0080004904FF42040CDE900010392F7
:100E800069462846FFF7C8F94FF48040CDE90004D1
:100E9000694628460294FFF7BFF905B030BD00004F
:100EA00000300140001002400008014000380040BE
:100EB000000C01402DE9F84F044690F8500000273F
:100EC0000A9E1D4692468B464FF0010901280ED01E
:100ED000012084F85000FFF799FA804694F85100F9
:100EE000616801280CD0B1F5827F07D102E00220B1
:100EF000BDE8F88FA16809B9042801D00227C2E033
:100F0000BBF1000F27D0BAF1000F24D01DB394F825
:100F10005100042802D0052084F8510000206065AB
:100F2000C4F838A0E587A587C4F830B0E586A58663
:100F30002064606420680168490603D4016841F0B8
:100F400040010160E068B0F5006F606805D0E8B36B
:100F5000012D46D07FE0012795E008B1012D39D160
:100F6000206B21680088C860206B801C2063E08EA5
:100F7000401EE0862EE02068816889070FD5E18E4B
:100F800069B1B9F1010F0AD1216B0988C160206BE9
:100F9000801C2063E08E401EE0864FF00009206830
:100FA0008168C9070CD0E18F51B1C068A16B08807E
:100FB000A06B801CA063E08F401EE0874FF001090A
:100FC000FFF724FAA0EB0800B04200E009E001D3EB
:100FD000701C50D1E08E0028CDD1E08F0028CAD1FE
:100FE0003FE0206B216800780873206B401C206371
:100FF000E08E401EE0862EE02068816889070FD5CC
:10100000E18E69B1B9F1010F0AD1216B0978017341
:10101000206B401C2063E08E401EE0864FF00009EC
:1010200020688168C9070CD0E18F51B1C068A16BFD
:101030000870A06B401CA063E08F401EE0874FF05B
:101040000109FFF7E3F9A0EB0800B04202D3701CDE
:1010500001D010E07EB1E08E0028CDD1E08F0028D5
:10106000CAD142463146204600F0E6FE28B10127AB
:101070002020606507E0032705E0A06818B9206814
:10108000C16880680090012084F85100002084F835
:10109000500038462CE710B5401EB0F1807F01D3D8
:1010A000012010BD4FF0E02460610F21601701F0B6
:1010B00045F90020A06107202061002010BD10B577
:1010C00090F83C20012A22D0012280F83C20CA68F6
:1010D0008C6822F4407222434C6822F480622243DE
:1010E0000C6822F4006222430C6922F480522243ED
:1010F0004C6922F400522243C969002322F4804241
:101100000A4301684A6480F83C30002010BD022088
:1011100010BD000070B590F83C20012A26D00124B3
:1011200080F83C40022280F83D2003685A689D68A0
:1011300022F070060A6832435A600D4B02689A42E8
:1011400008D0B2F1804F05D00A4B9A4202D00A4B28
:101150009A4204D1496825F080031943916080F8D0
:101160003D40002180F83C10084670BD022070BD53
:10117000002C0140000400400008004010B586B07B
:1011800000210091019102910391124C03681249D0
:1011900002221248A34209D18B6943F004038B61F8
:1011A000896901F00401049181150BE0B3F1804FCE
:1011B0000ED18B6943F004038B61896901F004014E
:1011C00004910121CDE9001269460392FFF724F84A
:1011D00006B010BD002C0140001002400008014084
:1011E00070B5044690F83C000D4601280AD0012055
:1011F00084F83C0042B1042A18D0082A2AD00C2ACC
:101200004DD139E0022070BD206800F009FF206850
:10121000816941F0080181612068816921F0040140
:101220008161206881692A69114311E0206800F01A
:101230001FFF2068816941F4006181612068816934
:1012400021F480618161206881692A6941EA022173
:10125000816124E0206800F037FF2068C16941F017
:101260000801C1612068C16921F00401C1612068E1
:10127000C1692A69114311E0206800F051FF20681C
:10128000C16941F40061C1612068C16921F48061D4
:10129000C1612068C1692A6941EA0221C161002057
:1012A00084F83C0070BD10B5040003D094F83D00F4
:1012B00010B107E0012010BD002084F83C0020465A
:1012C00000F01EF8022084F83D00211D206800F087
:1012D00063FE012084F8460084F83E0084F83F0055
:1012E00084F8400084F8410084F8420084F8430008
:1012F00084F8440084F8450084F83D00002010BDC7
:1013000008B50C4A01680C48914207D1816941F443
:1013100000618161806900F4006009E0B1F1804FF3
:1013200007D1C16941F00101C161C06900F001004C
:10133000009008BD002C01400010024010B504468A
:10134000022249B104290ED0082913D094F8410093
:10135000012816D0012010BD94F83E000128F9D1D3
:1013600084F83E200FE094F83F000128F2D184F881
:101370003F2008E094F840000128EBD184F8402099
:1013800001E084F841200122206800F03BFE0F4973
:101390002068884203D1426C42F4004242642068D3
:1013A000884208D0B0F1804F05D00949884202D068
:1013B0000849884204D1816801F00701062903D059
:1013C000016841F001010160002010BD002C0140C6
:1013D000000400400008004070B5040004D094F8F8
:1013E0003900002510B106E0012070BD84F83850A6
:1013F000204600F023F8242084F839002068C168D2
:1014000021F40051C160204600F0ACFE2068016963
:1014100021F4904101612068416921F02A01416174
:101420002068C16841F40051C160E563202084F860
:10143000390084F83A00002070BD000030B585B056
:101440000024009401940294039400681749884290
:101450002AD11748816941F480418161816901F491
:1014600080410491816941F0080181618069114DD9
:1014700000F008000490402000900220019003201A
:10148000039069462846FEF7C7FE8020CDE9000498
:10149000694628460294FEF7BFFE0748416841F0BE
:1014A000E06141F00401416005B030BD0038014009
:1014B00000100240000C0140000001402DE9F843FB
:1014C000044690F839001F4616460D4620284CD198
:1014D000C5B1BEB194F83800012846D0012084F887
:1014E00038004FF00008C4F83C80212084F839000F
:1014F000FEF78CFFA6848146E684A068B0F5805F85
:1015000003D004E00120BDE8F883206928B12E460D
:101510005FF0000584F838800EE00026FAE78021AD
:10152000204600F07BFEA0B9AEB116F8010B216891
:101530004860E08C401EE084E08C4B464FF0000297
:1015400000970028EBD14FF04001204600F066FEE6
:1015500030B10320D7E735F8020BC0F30800E6E707
:10156000202084F839000020CDE70220CBE7FEE7F9
:1015700001684A69D24352050FD46FF480624A6110
:10158000002140F8301F202242738173026942F02B
:1015900004020261017301207047002070470000BF
:1015A000F8B50446C06A1E460D461746082807D0FF
:1015B000012805D010F5803F02D0206B122804D1FD
:1015C0002068016841F480710160134600224FF0E9
:1015D00001112046009600F057F840B120680068DD
:1015E000C00502D54FF4007020640320F8BD2069C7
:1015F000B0F5804F0ED00620216800EAD51040F0EB
:10160000F000086133463A460B49204600F070F876
:1016100078B902E005F0FE0000E0E8B22168086158
:10162000054933463A46891F204600F061F80028F4
:10163000DCD00120F8BD00000800010070B516469E
:101640000D4604460DE02046FFF792FF08B1012049
:1016500070BD681C05D0FEF7D9FE801BA84207D8D4
:1016600035B120684069C0434007ECD4002070BD0C
:10167000002044F8300F20216173A073216941F0EC
:10168000200121612073E2E72DE9F0471E469046D4
:101690000D460446C1F30747DDF8209008E0701CB2
:1016A00006D0FEF7B3FEA0EB0900B0420FD876B12A
:1016B0002068012F18D0806925EA00000004000C82
:1016C00014D000214145EAD00020BDE8F087002079
:1016D00044F8300F20216173A073216941F020018B
:1016E000216120730120F0E74069E5E70121E9E786
:1016F0002DE9F0479A4691460E46044600254FF0E4
:101700002008C1F3074725E020684069C043400531
:1017100014D42068016841F40071016021686FF4FD
:1017200080604861256384F83D8084F83E50206CD9
:1017300040F00400206484F83C501FE0B9F1FF3F02
:1017400008D0FEF763FEA0EB0A0149450CD8B9F1B9
:10175000000F09D02068012F13D0806926EA00000D
:101760000004000C0BD0CFE744F8305F84F80D8004
:10177000A573206940F02000206125730120BDE899
:10178000F0874069EAE770B516460D4604460DE05D
:101790002046FFF7EDFE08B1012070BD681C05D0A2
:1017A000FEF734FE801BA84207D835B12068406997
:1017B000C0430006ECD4002070BD002044F8300F78
:1017C00020216173A073216941F020012161207300
:1017D000E2E77CB50446002529460D2000F052FDC5
:1017E000932020702020607001A8234600900222E0
:1017F00019460C2000F0B8F8010009D1225C401C09
:101800005540C0B20428F9D3205CA84200D0022180
:1018100008467CBD7CB50446002529460D2000F015
:101820004BFD932020702020607001A8234600907B
:10183000022219460C2000F01AF9010009D1225C9D
:10184000401C5540C0B20428F9D3205CA84200D007
:10185000022108467CBD000010B50122102113486A
:10186000FEF7CFFD012211461148FEF7CAFD00F038
:1018700073F88D212A2000F005FD3E212B2000F079
:1018800001FD1E212D2000F0FDFC00212C2000F088
:10189000F9FC4021152000F0F5FC3D21112000F05D
:1018A000F1FCBDE81040FEF777BC000000080140E5
:1018B000000C014010B5012211031048FEF7A1FDF4
:1018C00000F04EF88D212A2000F0F6FC3E212B205E
:1018D00000F0F2FC1E212D2000F0EEFC00212C2057
:1018E00000F0EAFC4021152000F0E6FC3D2111202B
:1018F00000F0E2FCBDE81040FEF758BC000C0140CF
:101900007CB50C46054607210D2000F0BBFC257078
:1019100001A823460090012219460C2000F024F86B
:1019200010B90199102900D002207CBD7CB50C466D
:10193000054607210D2000F0BFFC257001A82346B5
:101940000090012219460C2000F091F810B901997D
:10195000102900D002207CBD0F21012000F092BC94
:101960000F21012000F0A8BC2DE9FF5F0027022510
:10197000DDF838A016468B468146B8460C2805D0BF
:10198000B9F10E0F05D11227102001E07727302082
:10199000804647F08001022000F074FC8021042082
:1019A000FEF70FFC80210A2000F0B3FA002101208D
:1019B00000F068FC002405E01BF80410092000F08A
:1019C00061FC641CB442F7D34946012000F05AFC84
:1019D000B9F10C0F03D180210D2000F09AFA4FF4D9
:1019E000FA66042000F0EEF90446761E04D0E00703
:1019F00002D114EA080FF4D080210D20FEF7E1FB9C
:101A000036B1062000F0DEF910F01B0F04D00225DD
:101A100004B02846BDE8F09F00253C40E00700D018
:101A20000125B9F10C0FF3D10A2000F0CBF90446DF
:101A30000C2000F0C7F910F007004FEAC40101D0F4
:101A400008390144CAF8001024B1102C04D910241C
:101A5000002603E00124FBE7002605E0092000F052
:101A6000B1F903998855761CA642F7D3D0E72DE942
:101A7000FF5F00270225DDF838A016468B46814619
:101A8000B8460C2805D0B9F10E0F05D11227102049
:101A900001E077273020804647F08001022000F0E7
:101AA0000BFC80210420FEF798FB80210A2000F027
:101AB0003CFA0021012000F0FFFB002405E01BF8A8
:101AC0000410092000F0F8FB641CB442F7D3494627
:101AD000012000F0F1FBB9F10C0F03D180210D20A2
:101AE00000F023FA4FF4FA66042000F087F9044668
:101AF000761E04D0E00702D114EA080FF4D080214A
:101B00000D20FEF76AFB36B1062000F077F910F0E1
:101B10001B0F04D0022504B02846BDE8F09F002525
:101B20003C40E00700D00125B9F10C0FF3D10A20A9
:101B300000F064F904460C2000F060F910F0070092
:101B40004FEAC40101D008390144CAF8001024B199
:101B5000102C04D91024002603E00124FBE7002602
:101B600005E0092000F04AF903998855761CA64241
:101B7000F7D3D0E72DE9F04385B000242548009441
:101B8000019402940394816941F02001816181698B
:101B900001F020010491816941F0040181618169B2
:101BA00001F004010491816941F0080181618069BB
:101BB000DFF8648000F00800049000221021404605
:101BC000FEF71FFCDFF854904FF48057002239468F
:101BD0004846FEF716FC102001250226CDE9000537
:101BE000CDE9024669464046FEF716FB4FF4816098
:101BF000CDE90004694648460294FEF70DFB0097C4
:101C00000396CDE9015469464846FEF705FB05B049
:101C1000BDE8F0830010024000080140000C0140C4
:101C20000C480B494FF4007201604FF4827141601F
:101C300000218160C1600161C0E905121022C0E984
:101C40000721416281620A21C162FFF77DB800006D
:101C500000300140880000200C480B494FF400720E
:101C600001604FF48271416000218160C1600161B7
:101C7000C0E905120822C0E90721416281620A21F8
:101C8000C162FFF761B8000000380040E0000020AA
:101C900010B592B000240F941C2108A81094FEF7F0
:101CA00048FA20216846FEF744FA1B4819490160AA
:101CB00040F29F51C0E901144FF47A71C0E9031456
:101CC00044618461FFF7EFFA0F940FA91248109452
:101CD000FFF720FA6020CDE908040A940B940C94D5
:101CE0000D94002208A90C480E94FFF779FA00948D
:101CF0004FF40050CDE904400294019403946946E6
:101D000005480794FFF7DBF90348FFF737FA12B0ED
:101D100010BD0000002C01403801002010B58AB031
:101D2000002407941C2168460894FEF702FA124822
:101D30004FF08041016040F29F51C0E901144FF41F
:101D40007A71C0E903148461FFF7ADFA079407A91B
:101D500009480894FFF7DEF96020CDE900040294F9
:101D60000022694604480494FFF73AFA0248FFF754
:101D700005FA0AB010BD000080010020FEE77047A0
:101D80007047000001B582B064200090012301AAD1
:101D900002A90348FFF78EF89DF804000EBD00006D
:101DA0008800002001B582B064200090012301AAC0
:101DB00002A90348FFF77EF89DF804000EBD00005D
:101DC000E000002070B50C4D04460022102128468A
:101DD000FEF717FB7E2000EA440040F08000FFF78A
:101DE000D1FF0020FFF7CEFF044601221021284634
:101DF000FEF707FB204670BD0008014070B50D4E90
:101E000004464FF48055002229463046FEF7F9FA81
:101E10007E2000EA440040F08000FFF7C3FF00206E
:101E2000FFF7C0FF0446012229463046FEF7E9FAD3
:101E3000204670BD000C014038B50B4600920446A8
:101E40000022802100F008F8002804D0606D40F0E6
:101E500020006065032038BD2DE9F8431E469146F9
:101E600088460446089DFEF7D1FA401B351AFEF756
:101E7000CDFA074625480068C0F3CB30684338E008
:101E8000701C37D0FEF7C2FAC01BA84203D215B1AE
:101E9000009860B32CE02068416821F0E0014160C7
:101EA0006068B0F5827F0BD1A068B0F5004F02D01A
:101EB000B0F5806F04D12068016821F04001016015
:101EC000A06AB0F5005F09D12068016821F40051D3
:101ED00001602068016841F400510160012084F82C
:101EE0005100002084F850000320BDE8F88300254D
:101EF000401E00902068816838EA010004D000216B
:101F00004945BDD10020F0E70121F9E72C00002070
:101F1000704770B50C460546FFF754FF40EA0401D0
:101F20002846BDE8704000F0ADB970B50C460546D6
:101F3000FFF764FF40EA04012846BDE8704000F066
:101F4000BBB9FEF7FBBB30B58FB028216846FEF762
:101F5000F0F814210AA8FEF7ECF801210804CDE9F5
:101F600000100024029402250491CDE907504FF49B
:101F7000E01009906846FEF757FD0F20CDE90A05ED
:101F80006802CDE90C4002210AA80E94FEF760FC1D
:101F90000FB030BD70470000F0B50268164B174C0B
:101FA000174D4FF08047984205D0B84203D0A04269
:101FB00001D0A84203D122F070064A683243984209
:101FC00005D0B84203D0A04201D0A84203D122F4E8
:101FD0004074CA6822434C6922F0800222430260A6
:101FE0008A68C2620A688262984201D10969016303
:101FF00001214161F0BD0000002C014000040040BF
:102000000008004010B501F01F030121046A994047
:102010008C430462016A9A401143016210BD0000C2
:1020200030B5026A22F001020262026A43688469E2
:1020300024F073050C682C4322F002058A682A43B9
:102040000A4DA8420BD122F00805CA6823F4407358
:102050002A434D6922F004021D438B692B434360E0
:10206000846149684163026230BD0000002C014078
:1020700030B5026A22F010020262026A4368846983
:102080000D6824F4E64444EA05248D6822F0200219
:1020900042EA05120B4DA8420ED1CD6822F0800213
:1020A00042EA05124D6923F4406343EA85038D69D2
:1020B00022F0400243EA85034360846149688163FA
:1020C000026230BD002C014030B5026A22F48072F9
:1020D0000262036A4268C46923F4007324F0730542
:1020E0000C682C438D6843EA05230C4DA8420ED1A1
:1020F000CD6823F4006343EA05234D6922F440527E
:1021000042EA05128D6923F4806342EA05124260B7
:10211000C4614968C163036230BD0000002C014006
:1021200030B5026A22F480520262046A4268C369CE
:102130000D6823F4E64343EA05238D6824F4005434
:1021400044EA0534064DA84204D14D6922F4804288
:1021500042EA85124260C36149680164046230BD8D
:10216000002C014070B5044600680169E26821F462
:102170004051114301612169A06808436169084326
:102180002168CA6841F20C639A430243CA6020681E
:102190004169A26921F44071114341611E492068DF
:1021A000884202D1FEF7FAFB01E0FEF7E7FB00EB05
:1021B000C00101EB0012606864218000B2FBF0F303
:1021C000B3FBF1F36FF018067343B2FBF0F5B2FB0B
:1021D000F0F605EB8305322303EB0515B5FBF1F5AE
:1021E000B6FBF1F605F0F00505EB0615B2FBF0F6CF
:1021F000B2FBF0F0B0FBF1F06FF01802504306EBC9
:10220000800003EB0010B0FBF1F0216800F00F003C
:102210002844886070BD0000003801402DE9F0417D
:10222000984617460E460446069D1DE0681C1BD0C6
:102230002DB1FEF7EBF8A0EB0800A84214D92068F6
:10224000C16821F4D071C1602068416921F00101A9
:102250004161202084F8390084F83A00002084F895
:1022600038000320BDE8F0812068006836EA0000ED
:1022700004D00020B842D9D00020F3E70120F9E7CC
:10228000FEE7000070B50B4D0E46044600221021FB
:102290002846FEF7B6F87E2000EA4400FFF772FDFC
:1022A0003046FFF76FFD2846BDE87040012210213F
:1022B000FEF7A7B8000801402DE9F0410C4E0F468B
:1022C00004464FF48055002229463046FEF799F81F
:1022D0007E2000EA4400FFF765FD3846FFF762FD07
:1022E00029463046BDE8F0410122FEF78AB80000D9
:1022F000000C01400FB4054B10B503A9044A029825
:1023000000F03CF810BC5DF814FB0000E926000862
:10231000300000200FB4084B10B504A902AA03989E
:1023200000F02CF8044602A9002000F0C8F920466D
:1023300010BC5DF814FB0000BF2600080907090E59
:10234000002804DB00F1E02080F80014704700F062
:102350000F0000F1E02080F8141D704702E008C86B
:10236000121F08C1002AFAD170477047002001E00F
:1023700001C1121F002AFBD1704700002DE9FF4F59
:102380008BB088460546002606E025280BD0DDE9FF
:102390000D1290476D1C761C28780028F5D10FB0DF
:1023A0003046BDE8F08F0024A146A2460122AE4986
:1023B00000E0044315F8013F203B02FA03F0084215
:1023C000F7D128782A2810D06FF02F022878A0F1B2
:1023D0003001092915D809EB890102EB410144F0CC
:1023E000020400EB01096D1CF0E758F8041B5FEADA
:1023F000010903D544F40054C9F1000944F0020472
:102400006D1C28782E2817D115F8010F44F004040C
:102410002A280ED06FF02F022878A0F13001092968
:102420000AD80AEB8A0102EB410100EB010A6D1C9C
:10243000F2E758F804AB6D1C28786C280FD006DC46
:102440004C2817D068280DD06A2814D104E07428CD
:1024500010D07A280FD10DE044F400140AE044F4BF
:10246000801401E044F440146978814202D104F5FB
:1024700080146D1C6D1C2878692865D006DC002846
:102480008DD0632827D0642806D15DE06E2808D05F
:1024900073282AD0752877D0DDE90D129047761C75
:1024A000E0E0C4F30250022809D003280DD0D8F888
:1024B000001004280DD00E6008F10408D2E0D8F80E
:1024C0000010F217C1E90062F6E7D8F800100E809C
:1024D000F2E70E70F0E718F8041B8DF800100020EA
:1024E0008DF80100EB46012003E058F804BB4FF0E3
:1024F000FF3061074FF0000701D40AE07F1C574509
:102500000DDA8742FADB1BF807100029F6D106E046
:102510007F1C8742FCDB1BF807100029F8D1DDE99E
:102520000D23A9EB07008146214600F0B1F83044A5
:10253000C61904E0DDE90D121BF8010B90477F1E60
:10254000F8D22146484688E058F8040BC4F30251FB
:102550004FF00A0B032900D100B2042900D140B288
:10256000002802DA40422D2102E0210505D52B2169
:102570008DF82410012104E006E0E10710D02021AD
:10258000F6E708AF089113E058F8040BC4F30251C2
:102590004FF00A0B032900D180B2042900D1C0B248
:1025A0000021EEE75946FDF7CFFD303107F8011D58
:1025B0000028F7D1ADEB070000F1200B600702D532
:1025C00024F4803401E04FF0010ADA4502DDAAEB81
:1025D0000B0000E00020824600EB0B01089801444C
:1025E000A9EB01000A90E00306D4DDE90D232146A2
:1025F0000A9800F04DF806444FF0000908E009A9D8
:1026000011F80900DDE90D12904709F10109761C66
:1026100008998945F3DBE0030CD5DDE90D2321465C
:102620000A9800F035F8064404E0DDE90D12302088
:102630009047761CBAF10001AAF1010AF5DC05E029
:10264000DDE90D1217F8010B9047761CBBF1000174
:10265000ABF1010BF4DC0A982146DDE90D2300F013
:1026600005F806446D1C97E6092801002DE9F041A4
:10267000044600251E461746880404D405E0394662
:102680002020B0476D1C641EF9D52846BDE8F081B6
:102690002DE9F041044600251E469046C80301D5A9
:1026A000302700E02027880404D505E0414638465D
:1026B000B0476D1C641EF9D52846BDE8F0810A6854
:1026C000531C0B601070704702494B200968486327
:1026D000704700008001002002497D20096848639E
:1026E000704700003801002013B501231A466946DF
:1026F0000248FEF7E3FE00201CBD0000C8010020D8
:1027000010B509492620FFF7FBF8084C6071064810
:10271000FFF75FF80449607154394A6DE26091F83F
:102720005810217410BD0000080200200000002095
:1027300010B509492620FFF7F9F8084CA0710648A2
:10274000FFF768F80449A07164394A6EC4F8112093
:1027500091F86810617510BD18020020000000207B
:10276000012805D04031C8B240F0800000F030B8F8
:102770008031C8B2FAE710B5332000F029F83220D2
:1027800000F026F83220FDF735FD282000F020F873
:102790003220FDF72FFD012000F01AF83220FDF75E
:1027A00029FD062000F014F83220FDF723FD0C204F
:1027B00000F00EF83220FDF71DFD022000F008F8B1
:1027C0003220FDF717FDBDE810408020AFF30080F8
:1027D0001CB500F0F00141F00C028DF8042041F02E
:1027E000080100018DF8051040F00C018DF806106D
:1027F00040F008008DF8070064200090042301AA2F
:102800004E210248FDF7CCFE1CBD00003400002024
:102810001CB500F0F00141F00D028DF8042041F0EC
:10282000090100018DF8051040F00D018DF806102A
:1028300040F009008DF8070064200090042301AAED
:102840004E210248FDF7ACFE1CBD00003400002004
:1028500010B5044602E0641CFFF7DAFF2078002878
:10286000F9D110BDFDF772FFFFF76DFBFFF782F99D
:10287000FFF7F2F9FFF7D4F97348724900260160B7
:102880007249C0E901164FF48041C0E90361466115
:102890008661C6610662FDF7BFFDFFF7F9F9FFF734
:1028A0003DFA6C486A4901604FF4E131C0E9011614
:1028B0000C21C660C0E904618661C661FEF78CFD2B
:1028C000FEF7F8FFFEF7C8FF624800219038FEF7D8
:1028D00035FD604800214838FEF730FDFFF74BFF1B
:1028E0005DA0FFF7B5FFFFF7EFFEFFF7F5FE594FCD
:1028F000DFF86C91DFF86CA14FF0010B6037A9F1A4
:10290000070400BFFFF7FCFE217908430ED184F8CD
:1029100001B020780522B0FBF2F102FB11035D4605
:1029200019F80330494643B1401C20704FF48061D0
:102930005046FDF761FD10B32EE0B0FBF2F3904678
:1029400002FB130202EB82023A44E3681360237C29
:102950001371B0FBF8F308FB13000D5400F098F866
:102960002178B1FBF8F208FB121000EB800038442C
:10297000002100F09DF80028D8D12571D6E76078B5
:10298000012809D1FFF7A0FE2078401C2070667056
:10299000E078401CE0702671FFF7CAFEC8BB082132
:1029A0000120FFF7DDFE30A0FFF752FF26702DE07B
:1029B000217819F80100012822D1DFF8A480002530
:1029C00008F10A08207818F8051000EB8000384458
:1029D000425D91421ED1012100F06AF86D1CEDB2FA
:1029E00084F802B0052DEDD301210220FFF7B8FED7
:1029F0001EA0FFF72DFF00F053F8217809F80160C1
:102A00002078401CC0B22070052805D2A07800288C
:102A1000CED006E0A670F3E7A07810B915A0FFF7B6
:102A200069FC08215046FDF7E7FC00287FF46AAFF7
:102A3000A0780128FAD113A0FFF70AFFFFF74CFE98
:102A4000A6705FE70054004034000020A08601001B
:102A500000380140C801002048656C6C6F00000020
:102A600007000020000C01406F7574006D6F20633B
:102A70007561000046462C496E76616C696420637E
:102A800061726400646F6E6720637561000000000E
:102A900002497D20096848637047000080010020DA
:102AA00002494B2009684863704700003801002044
:102AB000F0B587B00C4607461C216846FDF739FB88
:102AC00002252C2014B1012C07D101E0302100E0B7
:102AD00031218DF800108DF8010002246E4638195E
:102AE0000BA110F8022C7019FFF714FC641C284489
:102AF000E4B2C5B2072CF2D37119002001F8010C21
:102B00000A23192269460348FEF7D8FC07B0F0BD36
:102B100025642D00C8010020000000000000000016
:102B20000102030406070809000000000102030473
:102B3000502B000800000020340000005C23000837
:102B4000842B000834000020140600006C230008C9
:102B50000000000000000000000000000000000075
:102B60000000000000000000000000000000000065
:102B70000100000010000000000000000024F4002C
:042B80000000000051
:04000005080000ED02
:00000001FF
